S02000004544353030305F43545F41546D656761333238505F6170702E73726563A5
S113000033C0000039C0000037C0000035C0000014
S113001033C0000031C000002FC000002DC000001C
S11300202BC0000029C0000027C0000025C000002C
S113003023C0000021C000001FC000001DC000003C
S11300401BC0000019C0000017C0000015C000004C
S113005013C0000011C000000FC000000DC000005C
S11300600BC0000009C0000011241FBECFEFD8E070
S1130070DEBFCDBFFBD027C1C3CF239A2B9A0895EF
S113008020E030E090E028173907BCF42B984FEFBC
S113009051EE64E0415050406040E1F700C0000080
S11300A02B9A4FEF51EE64E0415050406040E1F72D
S11300B000C000002F5F3F4FE6CF0895259A249A91
S11300C02C9A0895CF92DF92EF92FF921F93CF93D1
S11300D0DF936B017C01142F80E090E0C9D0803F56
S11300E023E0920718F4EC01659602C0C5E1D0E064
S11300F0BE0180E090E0D4D0B701A601CE01CBD000
S11301008C2F8C5F6CEF90E0B8D08C2F8B5F612FBD
S113011090E0DF91CF911F91FF90EF90DF90CF900F
S1130120ACC0CF93DF931F92CDB7DEB78983C6DF10
S1130130898190E09817B1F02D9A2FEF39E648E1C4
S1130140215030404040E1F700C000002D982FEFCF
S113015039E648E1215030404040E1F700C000005A
S11301609F5FE8CF9FEF2DE339E49150204030406A
S1130170E1F700C00000DDCF14B8229A85B1836096
S113018085B908952A9A2FEF87EA91E62150804095
S11301909040E1F700C00000189905C0199B06C003
S11301A080E090E0089581E090E0089584E090E09C
S11301B008952A982FEF87EA91E6215080409040D5
S11301C0E1F700C00000199905C0189B06C080E043
S11301D090E0089582E090E0089583E090E008952F
S11301E0CF92DF92EF92FF92CF93DF93C5DF45DF8B
S11301F0C9DFEC010097D1F08130910539F445E075
S113020060E070E0CB015EDF85E009C084309105D9
S113021041F446E060E070E0CB0154DF86E090E01A
S11302201EC0482F60E070E0CB010EC0C12CD12C61
S11302307601BFDFEC01892B21F4A4DFEC01892BCB
S113024031F04C2FC701B6013DDFCE0108C081E07B
S113025017DF8FEFC81AD80AE80AF80AEACFDF9145
S1130260CF91FF90EF90DF90CF900895B9DF59DFE1
S1130270A8E1B0E042E050E018C0262FF999FECF83
S11302801FBA92BD81BD20BD0FB6F894FA9AF99AAF
S11302900FBE01960895242FF1DF252FEFDF00C054
S11302A0ECDF272FEBCFDC01CB01FC01F999FECF6A
S11302B006C0F2BDE1BDF89A319600B40D924150EA
S10D02C05040B8F70895F894FFCFFA
S9030000FC
