S02000004544353030305F43545F41546D656761333238505F6170702E73726563A5
S113000033C0000039C0000037C0000035C0000014
S113001033C0000031C000002FC000002DC000001C
S11300202BC0000029C0000027C0000025C000002C
S113003023C0000021C000001FC000001DC000003C
S11300401BC0000019C0000017C0000015C000004C
S113005013C0000011C000000FC000000DC000005C
S11300600BC0000009C0000011241FBECFEFD8E070
S1130070DEBFCDBF06D132C1C3CF239A2B9A0895D8
S113008090E018161906DCF420E030E02B984FEFCE
S113009051EE64E0415050406040E1F700C0000080
S11300A02B9A4FEF51EE64E0415050406040E1F72D
S11300B000C000002F5F3F4F2817390739F7089514
S11300C0259A249A2C9A0895CF92DF92EF92FF9268
S11300D01F93CF93DF936B017C01142F80E090E09A
S11300E0D2D0803F23E0920718F4EC01659602C059
S11300F0C5E1D0E0BE0180E090E0DDD0B701A6010B
S1130100CE01D4D08C2F8C5F6CEF90E0C1D08C2FBB
S11301108B5F612F90E0BCD0DF91CF911F91FF9056
S1130120EF90DF90CF900895C82FCADF80E0CC23F2
S1130130C1F0982F2D9A2FEF39E648E12150304035
S11301404040E1F700C000002D982FEF39E648E168
S1130150215030404040E1F700C000009F5F9C13F5
S1130160E9CF9FEF2DE339E4915020403040E1F78F
S113017000C00000DCCF14B8229A85B1836085B931
S113018008952A9A2FEF87EA91E621508040904003
S1130190E1F700C00000189905C0199B06C080E073
S11301A090E0089581E090E0089584E090E008955F
S11301B02A982FEF87EA91E6215080409040E1F79A
S11301C000C00000199905C0189B06C080E090E0AB
S11301D0089582E090E0089583E090E00895CF923E
S11301E0DF92EF92FF92CF93DF93C5DF46DFC9DF43
S11301F0EC010097F1F08130910541F445E060E0B5
S113020070E0CB0161DF85E090E034C0843091057B
S113021041F446E060E070E0CB0156DF86E090E018
S113022029C0482F60E070E0CB014EDF8C2F9D2F5A
S113023021C0C12CD12C7601BBDFEC01009739F031
S1130240482FC701B60140DF8C2F9D2F13C099DFC3
S1130250EC01009739F0482FC701B60135DF8C2F28
S11302609D2F08C081E00CDF8FEFC81AD80AE80A76
S1130270F80AE2CFDF91CF91FF90EF90DF90CF901B
S11302800895ADDF51DFA8E1B0E042E050E018C0CE
S1130290262FF999FECF1FBA92BD81BD20BD0FB69E
S11302A0F894FA9AF99A0FBE01960895242FF1DF73
S11302B0252FEFDF00C0ECDF272FEBCFDC01CB01D4
S11302C0FC01F999FECF06C0F2BDE1BDF89A319662
S11302D000B40D9241505040B8F70895F894FFCF00
S9030000FC
