S02000004544353030305F43545F41546D656761333238505F6170702E73726563A5
S113000033C0000039C0000037C0000036C0000013
S113001033C0000031C000002FC000002DC000001C
S11300202BC0000029C0000027C0000025C000002C
S113003023C0000021C000001FC000001DC000003C
S11300401BC0000019C0000017C0000015C000004C
S113005013C0000011C000000FC000000DC000005C
S11300600BC0000009C0000011241FBECFEFD8E070
S1130070DEBFCDBF0CD028C0C3CF1F920F920FB6E6
S11300800F9211240F900FBE0F901F90189514B863
S113009084B18C6084B92A9A2B982A982FE38DE036
S11300A093E0215080409040E1F700C000002A9A7C
S11300B02FE38DE093E0215080409040E1F700C0B1
S10F00C0000080E090E00895F894FFCF69
S9030000FC
