S02000004544353030305F43545F41546D656761333238505F6170702E73726563A5
S113000033C0000041C000003FC000003DC00000FC
S11300103BC0000039C0000037C0000035C00000FC
S113002033C0000031C000002FC000002DC000000C
S11300302BC0000029C0000027C0000025C000001C
S113004023C0000021C000001FC000001DC000002C
S11300501BC0000019C0000017C0000015C000003C
S113006013C0000011C0000011241FBECFEFD8E060
S1130070DEBFCDBF21E0A0E0B1E001C01D92A430FD
S1130080B207E1F75AD186C1BBCF93B181E089278A
S1130090817090E0089583B1869591E089278170FD
S11300A090E00895CF93DF93C0910201D0910301B2
S11300B0CC0FDD1FEADFD06E21E030E0892B11F098
S11300C020E030E0C22BD32BD0930301C093020174
S11300D081E0C115D04F09F080E0DF91CF91089500
S11300E0CF93DF93C0910001D0910101CC0FDD1FAC
S11300F0D2DFD06E21E030E0892B11F020E030E037
S1130100C22BD32BD0930101C093000181E0C11510
S1130110D04F09F080E0DF91CF910895239A2B9A74
S1130120089590E018161906DCF420E030E02B98CE
S11301304FEF51EE64E0415050406040E1F700C0A1
S113014000002B9A4FEF51EE64E041505040604064
S1130150E1F700C000002F5F3F4F2817390739F738
S11301600895259A249A2C9A0895CF92DF92EF92BB
S1130170FF921F93CF93DF936B017C01142F80E0D8
S113018090E0DDD0803F23E0920718F4EC016596FF
S113019002C0C5E1D0E0BE0180E090E0E8D0B70144
S11301A0A601CE01DFD08C2F8C5F6CEF90E0CCD019
S11301B08C2F8B5F612F90E0C7D0DF91CF911F917F
S11301C0FF90EF90DF90CF900895C82FCADF80E0B2
S11301D0CC23C1F0982F2D9A2FEF39E648E1215016
S11301E030404040E1F700C000002D982FEF39E681
S11301F048E1215030404040E1F700C000009F5FDB
S11302009C13E9CF9FEF2DE339E491502040304017
S1130210E1F700C00000DCCF14B8229A85B18360F6
S113022085B90895CF93DF932A9A2A98CEE1D0E036
S113023039DF811105C02197D9F781E090E00CC026
S1130240CEE1D0E04DDF811105C02197D9F780E0E0
S113025090E002C084E090E0DF91CF910895CF93C5
S1130260DF932A98CAE0D0E03BDF2197E9F788239F
S113027051F0CAE0D0E016DF2197E9F7811106C0FA
S113028080E090E005C082E090E002C083E090E06E
S1130290DF91CF910895CF92DF92EF92FF92CF93A7
S11302A0DF93BADF3BDFBEDFEC010097F1F0813072
S11302B0910541F445E060E070E0CB0156DF85E054
S11302C090E034C08430910541F446E060E070E091
S11302D0CB014BDF86E090E029C0482F60E070E05E
S11302E0CB0143DF8C2F9D2F21C0C12CD12C760153
S11302F0B6DFEC01009739F0482FC701B60135DFAE
S11303008C2F9D2F13C08EDFEC01009739F0482FFE
S1130310C701B6012ADF8C2F9D2F08C081E001DFC1
S11303208FEFC81AD80AE80AF80AE2CFDF91CF9112
S1130330FF90EF90DF90CF900895ADDF46DFA8E106
S1130340B0E042E050E018C0262FF999FECF1FBA62
S113035092BD81BD20BD0FB6F894FA9AF99A0FBEEA
S113036001960895242FF1DF252FEFDF00C0ECDF85
S1130370272FEBCFDC01CB01FC01F999FECF06C09E
S1130380F2BDE1BDF89A319600B40D92415050404F
S10B0390B8F70895F894FFCFBB
S9030000FC
