S02000004544353030305F43545F41546D656761333238505F6170702E73726563A5
S113000033C0000039C0000037C0000036C0000013
S113001033C0000031C000002FC000002DC000001C
S11300202BC0000029C0000027C0000025C000002C
S113003023C0000021C000001FC000001DC000003C
S11300401BC0000019C0000017C0000015C000004C
S113005013C0000011C000000FC000000DC000005C
S11300600BC0000009C0000011241FBECFEFD8E070
S1130070DEBFCDBF0CD05EC0C3CF1F920F920FB6B0
S11300800F9211240F900FBE0F901F90189514B863
S113009084B18C6084B92A9A2B9818991EC02A9826
S11300A02FEF33ED40E3215030404040E1F700C0F2
S11300B00000199914C0189B14C02A9A5FEF83EDAD
S11300C090E3515080409040E1F700C0000018993F
S11300D00AC01999E4CF94E007C095E005C092E006
S11300E003C093E001C091E0259A20E09923C1F078
S11300F0822F2D9A3FEF49E658E13150404050405D
S1130100E1F700C000002D983FEF49E658E1315077
S113011040405040E1F700C000008F5F8913E9CFF1
S11301208FEF3DE349E4815030404040E1F700C0A7
S10B01300000DCCFF894FFCFBE
S9030000FC
