S02000004544353030305F43545F41546D656761333238505F6170702E73726563A5
S113000033C0000044C0000042C0000040C00000F3
S11300103EC000003CC000003AC0000038C00000F0
S113002036C0000034C0000032C0000030C0000000
S11300302EC000002CC000002AC0000028C0000010
S113004026C0000024C0000022C0000020C0000020
S11300501EC000001CC000001AC0000018C0000030
S113006016C0000014C0000011241FBECFEFD8E05A
S1130070DEBFCDBF11E0A0E0B1E0ECEDF3E002C0E3
S113008005900D92A430B107D9F779D1A5C1B8CFA5
S113009093B181E08927817090E0089583B18695BA
S11300A091E08927817090E00895CF93DF93C09108
S11300B00201D0910301CC0FDD1FEADFD06E21E0F5
S11300C030E0892B11F020E030E0C22BD32BD09309
S11300D00301C093020181E0C115D04F09F080E013
S11300E0DF91CF910895CF93DF93C0910001D09118
S11300F00101CC0FDD1FD2DFD06E21E030E0892B6F
S113010011F020E030E0C22BD32BD0930101C09337
S1130110000181E0C115D04F09F080E0DF91CF915B
S11301200895239A2B9A089590E018161906DCF482
S113013020E030E02B984FEF51EE64E04150504006
S11301406040E1F700C000002B9A4FEF51EE64E0ED
S1130150415050406040E1F700C000002F5F3F4F26
S11301602817390739F70895259A249A2C9A08955F
S1130170CF92DF92EF92FF921F93CF93DF936B01A5
S11301807C01142F80E090E0FCD0803F23E09207B4
S113019018F4EC01659602C0C5E1D0E0BE0180E030
S11301A090E007D1B701A601CE01FED08C2F8C5F61
S11301B06CEF90E0EBD08C2F8B5F612F90E0E6D05A
S11301C0DF91CF911F91FF90EF90DF90CF90089532
S11301D0C82FCADF80E0CC23C1F0982F2D9A2FEFCF
S11301E039E648E1215030404040E1F700C00000CA
S11301F02D982FEF39E648E1215030404040E1F797
S113020000C000009F5F9C13E9CF9FEF2DE339E40A
S1130210915020403040E1F700C00000DCCF14B81A
S1130220229A85B1836085B92A9A0895CF93DF9382
S1130230C8ECD0E03ADF81110BC08FE19EE4019756
S1130240F1F700C000002197A9F781E090E012C007
S1130250CAE0D0E048DF81110BC08FE19EE4019732
S1130260F1F700C000002197A9F780E090E002C0F8
S113027084E090E0DF91CF910895CF93DF93C8ECB1
S1130280D0E031DF81110BC08FE19EE40197F1F7DB
S113029000C000002197A9F782E090E012C0CAE0F4
S11302A0D0E003DF81110BC08FE19EE40197F1F7E9
S11302B000C000002197A9F780E090E002C083E02D
S11302C090E0DF91CF910895CF92DF92EF92FF9269
S11302D0CF93DF93A4DF25DFA9DFEC010097F1F0D2
S11302E08130910541F445E060E070E0CB0140DFEE
S11302F085E090E03DC08430910541F446E060E043
S113030070E0CB0135DF86E090E032C0482F60E03A
S113031070E0CB012DDF8C2F9D2F2AC0C12CD12C56
S11303207601ABDFEC01009739F0482FC701B60125
S11303301FDF8C2F9D2F1CC02FEF89E698E12150E1
S113034080409040E1F700C0000070DFEC010097AE
S113035039F0482FC701B6010BDF8C2F9D2F08C041
S113036081E0E2DE2FEFC21AD20AE20AF20AD9CF02
S1130370DF91CF91FF90EF90DF90CF900895A4DFAD
S113038027DFA8E1B0E042E050E018C0262FF99939
S1130390FECF1FBA92BD81BD20BD0FB6F894FA9A64
S11303A0F99A0FBE01960895242FF1DF252FEFDF70
S11303B000C0ECDF272FEBCFDC01CB01FC01F99966
S11303C0FECF06C0F2BDE1BDF89A319600B40D929D
S10F03D041505040B8F70895F894FFCF56
S10703DC01E001E057
S9030000FC
